:100000000C9434000C9449000C9449000C94490061
:100010000C9449000C9449000C9449000C9449003C
:100020000C9449000C9449000C9449000C9449002C
:100030000C9449000C9449000C9449000C9449001C
:100040000C9449000C9449000C9449000C9449000C
:100050000C9449000C9449000C9449000C944900FC
:100060000C9449000C94490011241FBECFEFD8E036
:10007000DEBFCDBF11E0A0E0B1E0E0E6F7E002C0F6
:1000800005900D92AA30B107D9F70E9440020C9456
:10009000AE030C9400008AB18C618AB98BB1877E63
:1000A0008BB9089590E05A982BB1AC01440F452FBD
:1000B000441F550B440F551F440F551F242B2BB9BC
:1000C0005B9A5B985A984BB19C01022E232F000C2F
:1000D000221F330B000C221F331F220F331F220F4E
:1000E000331F2470242B2BB95B9A5B985A984BB121
:1000F0009C01359527953595279535952795359507
:10010000279535952795220F331F220F331F247013
:10011000242B2BB95B9A5B985A984BB19C0135956F
:100120002795359527953595279535952795220F50
:10013000331F220F331F2470242B2BB95B9A5B983B
:100140005A984BB19C01359527953595279535954E
:100150002795220F331F220F331F2470242B2BB916
:100160005B9A5B985A983BB1282F2470232B2BB9AC
:100170005B9A5B985A984BB19C0135952795220F55
:10018000331F220F331F2470242B2BB95B9A5B98EB
:100190005A982BB1880F991F880F991F8470822B52
:1001A0008BB95B9A5B980895EAE0F0E0BF010E948A
:1001B00086039C01CB01BF010E94860320503F4F64
:1001C000F901208130E05A984BB1B901660F672FD1
:1001D000661F770B660F771F660F771F462B4BB98D
:1001E0005B9A5B985A986BB1A901042E452F000CBD
:1001F000441F550B000C441F551F440F551F440F3F
:10020000551F4470462B4BB95B9A5B985A986BB15B
:10021000A9015595479555954795559547955595F8
:10022000479555954795440F551F440F551F4470EA
:10023000462B4BB95B9A5B985A986BB1A9015595BF
:100240004795559547955595479555954795440F2D
:10025000551F440F551F4470462B4BB95B9A5B9852
:100260005A986BB1A9015595479555954795559560
:100270004795440F551F440F551F4470462B4BB9EB
:100280005B9A5B985A985BB1422F4470452B4BB9EF
:100290005B9A5B985A986BB1A90155954795440FA5
:1002A000551F440F551F4470462B4BB95B9A5B9802
:1002B0005A984BB1220F331F220F331F2470242B67
:1002C0002BB95B9A5B98009709F488C080509F4FC8
:1002D000FC01808190E05A982BB1AC01440F452F6E
:1002E000441F550B440F551F440F551F242B2BB98A
:1002F0005B9A5B985A984BB19C01022E232F000CFD
:10030000221F330B000C221F331F220F331F220F1B
:10031000331F2470242B2BB95B9A5B985A984BB1EE
:100320009C013595279535952795359527953595D4
:10033000279535952795220F331F220F331F2470E1
:10034000242B2BB95B9A5B985A984BB19C0135953D
:100350002795359527953595279535952795220F1E
:10036000331F220F331F2470242B2BB95B9A5B9809
:100370005A984BB19C01359527953595279535951C
:100380002795220F331F220F331F2470242B2BB9E4
:100390005B9A5B985A983BB1282F2470232B2BB97A
:1003A0005B9A5B985A984BB19C0135952795220F23
:1003B000331F220F331F2470242B2BB95B9A5B98B9
:1003C0005A982BB1880F991F880F991F8470822B20
:1003D0008BB95B9A5B985C985C9A08958FEF90E07C
:1003E0007ACF5A985A9A5B9A5B985A988BB18BB984
:1003F0005B9A5B985A985A9A5B9A5B985A988BB119
:100400008BB95B9A5B985A985A9A5B9A5B985A9800
:100410008BB18BB95B9A5B985A985A9A5B9A5B98A6
:100420005A988BB18BB95B9A5B985A988BB18BB900
:100430005B9A5B985A988BB18BB95B9A5B985A9888
:100440008BB18BB95B9A5B985A988BB18BB95B9ADD
:100450005B985A988BB18BB95B9A5B985A988BB121
:100460008BB95B9A5B985A988BB18BB95B9A5B9806
:100470005A988BB18BB95B9A5B985C985C9A08959B
:100480008AB18C618AB98BB1877E8BB90E94F101E8
:1004900020ECF0E0E0E0CAE0D0E0CF01BE010E9435
:1004A0008603CB01BE010E9486035A984BB130E00F
:1004B000B901660F672F661F770B660F771F660FF0
:1004C000771F462B4BB95B9A5B985A986BB1A90181
:1004D000042E452F000C441F550B000C441F551FC4
:1004E000440F551F440F551F4470462B4BB95B9A60
:1004F0005B985A986BB1A9015595479555954795C5
:10050000559547955595479555954795440F551FD2
:10051000440F551F4470462B4BB95B9A5B985A9811
:100520006BB1A901559547955595479555954795B3
:1005300055954795440F551F440F551F4470462B42
:100540004BB95B9A5B985A986BB1A9015595479541
:100550005595479555954795440F551F440F551F81
:100560004470462B4BB95B9A5B985A985BB1422F0B
:100570004470452B4BB95B9A5B985A986BB1A901B3
:1005800055954795440F551F440F551F4470462BF2
:100590004BB95B9A5B985A984BB1220F331F220FCD
:1005A000331F2470242B2BB95B9A5B98009709F4B6
:1005B0009EC080509F4FDC018C9190E07C01EE0C3E
:1005C000EF2CEE1CFF08EE0CEE0CBC01062E672F84
:1005D000000C661F770B000C661F771F660F771FD6
:1005E000660F771F462F44708C011595079515955A
:1005F0000795159507951595079515950795000F7E
:10060000111F000F111F04709C013595279535951A
:1006100027953595279535952795220F331F220F5E
:10062000331F122F14709C0135952795359527950A
:1006300035952795220F331F220F331F2470B82FB3
:10064000B470FB2EDC01B595A795AA0FBB1FAA0FAE
:10065000BB1FA470880F991F880F991F84705A9828
:100660007BB17E297BB95B9A5B985A986BB1642BFE
:100670006BB95B9A5B985A985BB1502B5BB95B9AEC
:100680005B985A984BB1412B4BB95B9A5B985A983F
:100690003BB1322B3BB95B9A5B985A982BB12F290F
:1006A0002BB95B9A5B985A989BB19A2B9BB95B9A32
:1006B0005B985A989BB1892B8BB95B9A5B985C9835
:1006C0005C9A2FEF33EC89E0215030408040E1F715
:1006D00000C000003196E436F105A1F0CF01BE0163
:1006E0000E948603DC01A050BF4F2C91D6CE84E03F
:1006F000A4E094E0F92E24E014E004E044E034E0C7
:10070000E32EADCF20ECF0E0E0E0C7CE97FB072E64
:1007100016F4009407D077FD09D00E949A0307FCD5
:1007200005D03EF4909581959F4F08957095619501
:100730007F4F0895AA1BBB1B51E107C0AA1FBB1F17
:10074000A617B70710F0A61BB70B881F991F5A955D
:10075000A9F780959095BC01CD010895F894FFCF3D
:0A076000C0F9A4B0999282F88090CD
:00000001FF
